:1000000019C020C01FC01EC01DC01CC01BC01AC00C
:1000100019C018C017C016C015C014C013C012C034
:1000200011C010C00FC00EC00DC00CC00BC00AC064
:1000300009C008C011241FBECFEFD4E0DEBFCDBF82
:1000400002D027C0DDCFCF93DF93CDB7DEB7789452
:1000500005D080E090E0DF91CF910895CF93DF93BA
:10006000CDB7DEB785EC90E0FC01108284EC90E027
:100070002FEFFC01208381EC90E028E1FC0120833C
:1000800082EC90E02EE3FC0120830000DF91CF9111
:060090000895F894FFCF73
:00000001FF
